{
  "contractName": "ParImpar",
  "abi": [
    {
      "inputs": [
        {
          "internalType": "address payable",
          "name": "_p1",
          "type": "address"
        },
        {
          "internalType": "address payable",
          "name": "_p2",
          "type": "address"
        }
      ],
      "payable": false,
      "stateMutability": "nonpayable",
      "type": "constructor"
    },
    {
      "constant": false,
      "inputs": [
        {
          "internalType": "bytes32",
          "name": "c1",
          "type": "bytes32"
        }
      ],
      "name": "doCommit",
      "outputs": [],
      "payable": true,
      "stateMutability": "payable",
      "type": "function"
    },
    {
      "constant": false,
      "inputs": [
        {
          "internalType": "string",
          "name": "v1",
          "type": "string"
        },
        {
          "internalType": "bytes32",
          "name": "nonce1",
          "type": "bytes32"
        }
      ],
      "name": "doReveal",
      "outputs": [],
      "payable": false,
      "stateMutability": "nonpayable",
      "type": "function"
    },
    {
      "constant": true,
      "inputs": [
        {
          "internalType": "string",
          "name": "val",
          "type": "string"
        },
        {
          "internalType": "string",
          "name": "nonce",
          "type": "string"
        }
      ],
      "name": "hashData",
      "outputs": [
        {
          "internalType": "bytes32",
          "name": "",
          "type": "bytes32"
        }
      ],
      "payable": false,
      "stateMutability": "pure",
      "type": "function"
    },
    {
      "constant": true,
      "inputs": [],
      "name": "getResult",
      "outputs": [
        {
          "internalType": "bool",
          "name": "",
          "type": "bool"
        }
      ],
      "payable": false,
      "stateMutability": "view",
      "type": "function"
    }
  ],
  "bytecode": "0x6080604052600060025534801561001557600080fd5b506040516109263803806109268339818101604052604081101561003857600080fd5b8101908080519060200190929190805190602001909291905050506000600360006101000a81548160ff021916908315150217905550816000806101000a81548173ffffffffffffffffffffffffffffffffffffffff021916908373ffffffffffffffffffffffffffffffffffffffff16021790555080600160006101000a81548173ffffffffffffffffffffffffffffffffffffffff021916908373ffffffffffffffffffffffffffffffffffffffff1602179055505050610826806101006000396000f3fe60806040526004361061003f5760003560e01c806335c436e41461004457806374163d92146101b7578063de29278914610289578063edd7b7f0146102b8575b600080fd5b34801561005057600080fd5b506101a16004803603604081101561006757600080fd5b810190808035906020019064010000000081111561008457600080fd5b82018360208201111561009657600080fd5b803590602001918460018302840111640100000000831117156100b857600080fd5b91908080601f016020809104026020016040519081016040528093929190818152602001838380828437600081840152601f19601f8201169050808301925050505050505091929192908035906020019064010000000081111561011b57600080fd5b82018360208201111561012d57600080fd5b8035906020019184600183028401116401000000008311171561014f57600080fd5b91908080601f016020809104026020016040519081016040528093929190818152602001838380828437600081840152601f19601f8201169050808301925050505050505091929192905050506102e6565b6040518082815260200191505060405180910390f35b3480156101c357600080fd5b50610287600480360360408110156101da57600080fd5b81019080803590602001906401000000008111156101f757600080fd5b82018360208201111561020957600080fd5b8035906020019184600183028401116401000000008311171561022b57600080fd5b91908080601f016020809104026020016040519081016040528093929190818152602001838380828437600081840152601f19601f8201169050808301925050505050505091929192908035906020019092919050505061044b565b005b34801561029557600080fd5b5061029e61062e565b604051808215151515815260200191505060405180910390f35b6102e4600480360360208110156102ce57600080fd5b8101908080359060200190929190505050610645565b005b6000600282846040516020018083805190602001908083835b6020831061032257805182526020820191506020810190506020830392506102ff565b6001836020036101000a03801982511681845116808217855250505050505090500182805190602001908083835b602083106103735780518252602082019150602081019050602083039250610350565b6001836020036101000a038019825116818451168082178552505050505050905001925050506040516020818303038152906040526040518082805190602001908083835b602083106103db57805182526020820191506020810190506020830392506103b8565b6001836020036101000a038019825116818451168082178552505050505050905001915050602060405180830381855afa15801561041d573d6000803e3d6000fd5b5050506040513d602081101561043257600080fd5b8101908080519060200190929190505050905092915050565b6000809054906101000a900473ffffffffffffffffffffffffffffffffffffffff1673ffffffffffffffffffffffffffffffffffffffff163373ffffffffffffffffffffffffffffffffffffffff161415806104f55750600160009054906101000a900473ffffffffffffffffffffffffffffffffffffffff1673ffffffffffffffffffffffffffffffffffffffff163373ffffffffffffffffffffffffffffffffffffffff1614155b1561054b576040517f08c379a00000000000000000000000000000000000000000000000000000000081526004018080602001828103825260288152602001806107ca6028913960400191505060405180910390fd5b600473__SimpleCommit__________________________63a20c9a62909183856040518463ffffffff1660e01b81526004018084815260200183815260200180602001828103825283818151815260200191508051906020019080838360005b838110156105c65780820151818401526020810190506105ab565b50505050905090810190601f1680156105f35780820380516001836020036101000a031916815260200191505b5094505050505060006040518083038186803b15801561061257600080fd5b505af4158015610626573d6000803e3d6000fd5b505050505050565b6000600360009054906101000a900460ff16905090565b6000809054906101000a900473ffffffffffffffffffffffffffffffffffffffff1673ffffffffffffffffffffffffffffffffffffffff163373ffffffffffffffffffffffffffffffffffffffff161415806106ef5750600160009054906101000a900473ffffffffffffffffffffffffffffffffffffffff1673ffffffffffffffffffffffffffffffffffffffff163373ffffffffffffffffffffffffffffffffffffffff1614155b15610745576040517f08c379a00000000000000000000000000000000000000000000000000000000081526004018080602001828103825260288152602001806107ca6028913960400191505060405180910390fd5b600473__SimpleCommit__________________________623a471d9091836040518363ffffffff1660e01b8152600401808381526020018281526020019250505060006040518083038186803b15801561079e57600080fd5b505af41580156107b2573d6000803e3d6000fd5b50505050346002600082825401925050819055505056fe4ec3a36f207061727469636970616e746573206ec3a36f20706f64656d2070617274696369706172a265627a7a723158205794c45748a05f5094f423cce14068679e0c4e2ebe9b0365491b4a021a8dde3f64736f6c63430005100032",
  "source": "pragma solidity >=0.4.25 <0.6.0;\n\nimport \"./SimpleCommit.sol\";\n\ncontract ParImpar {\n    using SimpleCommit for SimpleCommit.CommitType;\n    address payable participant1;\n    address payable participant2;\n    uint256 funds = 0;\n\n    bool ok;\n    SimpleCommit.CommitType sc1;\n\n    // no deploy do contrato os dois participantes são colocados para \n    // evitar que terceiros participem só para atrapalhar o jogo\n    constructor(address payable _p1, address payable _p2) public {\n        ok = false;\n        participant1 = _p1;\n        participant2 = _p2;\n    }\n\n      modifier isParticipant {\n        if (msg.sender != participant1 || msg.sender != participant2)\n            revert(\"Não participantes não podem participar\");\n      _;\n   }    \n    \n\n    function doCommit(bytes32 c1) public payable isParticipant{\n        sc1.commit(c1);\n        funds += msg.value;\n    }\n    \n    function doReveal(string memory v1, bytes32 nonce1) public isParticipant{\n        sc1.reveal(nonce1,v1);\n    }\n\n    function hashData(string memory val, string memory nonce) public pure returns (bytes32) {\n        return sha256(abi.encodePacked(nonce, val));\n    }\n    \n    function getResult() public view returns (bool) {\n        return ok;\n    }\n}\n",
  "sourcePath": "/home/bufulin/Documents/Personal Codes/smart-contracts/ParImpar/contracts/ParImpar.sol",
  "compiler": {
    "name": "solc",
    "version": "0.5.16+commit.9c3226ce.Emscripten.clang"
  },
  "schemaVersion": "3.4.3",
  "updatedAt": "2021-09-30T00:36:49.279Z",
  "networkType": "ethereum",
  "devdoc": {
    "methods": {}
  },
  "userdoc": {
    "methods": {}
  }
}