{
  "contractName": "SimpleCommit",
  "abi": [
    {
      "constant": true,
      "inputs": [
        {
          "internalType": "string",
          "name": "val",
          "type": "string"
        },
        {
          "internalType": "string",
          "name": "nonce",
          "type": "string"
        }
      ],
      "name": "hashData",
      "outputs": [
        {
          "internalType": "bytes32",
          "name": "",
          "type": "bytes32"
        }
      ],
      "payable": false,
      "stateMutability": "pure",
      "type": "function"
    }
  ],
  "bytecode": "0x6107a9610026600b82828239805160001a60731461001957fe5b30600052607381538281f3fe73000000000000000000000000000000000000000030146080604052600436106100605760003560e01c80623a471d1461006557806335c436e4146100aa57806361f7bb291461021057806391cc8ba014610256578063ec01d198146102dc575b600080fd5b81801561007157600080fd5b506100a86004803603604081101561008857600080fd5b81019080803590602001909291908035906020019092919050505061034d565b005b6101fa600480360360408110156100c057600080fd5b81019080803590602001906401000000008111156100dd57600080fd5b8201836020820111156100ef57600080fd5b8035906020019184600183028401116401000000008311171561011157600080fd5b91908080601f016020809104026020016040519081016040528093929190818152602001838380828437600081840152601f19601f8201169050808301925050505050505091929192908035906020019064010000000081111561017457600080fd5b82018360208201111561018657600080fd5b803590602001918460018302840111640100000000831117156101a857600080fd5b91908080601f016020809104026020016040519081016040528093929190818152602001838380828437600081840152601f19601f82011690508083019250505050505050919291929050505061039d565b6040518082815260200191505060405180910390f35b61023c6004803603602081101561022657600080fd5b8101908080359060200190929190505050610502565b604051808215151515815260200191505060405180910390f35b6102826004803603602081101561026c57600080fd5b8101908080359060200190929190505050610550565b60405180827effffffffffffffffffffffffffffffffffffffffffffffffffffffffffffff19167effffffffffffffffffffffffffffffffffffffffffffffffffffffffffffff1916815260200191505060405180910390f35b8180156102e857600080fd5b5061034b600480360360608110156102ff57600080fd5b81019080803590602001909291908035906020019092919080357effffffffffffffffffffffffffffffffffffffffffffffffffffffffffffff191690602001909291905050506105c0565b005b80826000018190555060008260010160016101000a81548160ff02191690831515021790555060008260010160026101000a81548160ff0219169083600181111561039457fe5b02179055505050565b6000600282846040516020018083805190602001908083835b602083106103d957805182526020820191506020810190506020830392506103b6565b6001836020036101000a03801982511681845116808217855250505050505090500182805190602001908083835b6020831061042a5780518252602082019150602081019050602083039250610407565b6001836020036101000a038019825116818451168082178552505050505050905001925050506040516020818303038152906040526040518082805190602001908083835b60208310610492578051825260208201915060208101905060208303925061046f565b6001836020036101000a038019825116818451168082178552505050505050905001915050602060405180830381855afa1580156104d4573d6000803e3d6000fd5b5050506040513d60208110156104e957600080fd5b8101908080519060200190929190505050905092915050565b600060018081111561051057fe5b8260010160029054906101000a900460ff16600181111561052d57fe5b1461053757600080fd5b8160010160019054906101000a900460ff169050919050565b600060018081111561055e57fe5b8260010160029054906101000a900460ff16600181111561057b57fe5b1461058557600080fd5b600115158260010160019054906101000a900460ff161515146105a757600080fd5b8160010160009054906101000a900460f81b9050919050565b600060018111156105cd57fe5b8360010160029054906101000a900460ff1660018111156105ea57fe5b146105f457600080fd5b60006002838360405160200180838152602001827effffffffffffffffffffffffffffffffffffffffffffffffffffffffffffff19167effffffffffffffffffffffffffffffffffffffffffffffffffffffffffffff19168152600101925050506040516020818303038152906040526040518082805190602001908083835b602083106106975780518252602082019150602081019050602083039250610674565b6001836020036101000a038019825116818451168082178552505050505050905001915050602060405180830381855afa1580156106d9573d6000803e3d6000fd5b5050506040513d60208110156106ee57600080fd5b8101908080519060200190929190505050905060018460010160026101000a81548160ff0219169083600181111561072257fe5b0217905550836000015481141561076e5760018460010160016101000a81548160ff021916908315150217905550818460010160006101000a81548160ff021916908360f81c02179055505b5050505056fea265627a7a723158204cc128279e2e9f82566af8d004a0c3e319f3c2a5d0d4c0755c00e205c06920a264736f6c63430005100032",
  "source": "pragma solidity >=0.4.25 <0.6.0;\n\nlibrary SimpleCommit {\n    enum CommitStatesType {\n        Waiting,\n        Revealed\n    }\n\n    struct CommitType {\n        bytes32 commited;\n        bytes1 value;\n        bool verified;\n        CommitStatesType myState;\n    }\n\n    function commit(CommitType storage c, bytes32 h) public {\n        c.commited = h;\n        c.verified = false;\n        c.myState = CommitStatesType.Waiting;\n    }\n\n    function reveal(\n        CommitType storage c,\n        bytes32 nonce,\n        bytes1 v\n    ) public {\n        require(c.myState == CommitStatesType.Waiting);\n        bytes32 ver = sha256(abi.encodePacked(nonce, v));\n        c.myState = CommitStatesType.Revealed;\n        if (ver == c.commited) {\n            c.verified = true;\n            c.value = v;\n        }\n    }\n\n\n    function hashData(string memory val, string memory nonce) public pure returns (bytes32) {\n        return sha256(abi.encodePacked(nonce, val));\n    }\n    \n    function isCorrect(CommitType storage c) public view returns (bool) {\n        require(c.myState == CommitStatesType.Revealed);\n        return c.verified;\n    }\n\n    function getValue(CommitType storage c) public view returns (bytes1) {\n        require(c.myState == CommitStatesType.Revealed);\n        require(c.verified == true);\n        return c.value;\n    }\n}\n\n\n",
  "sourcePath": "/home/bufulin/Documents/Personal Codes/smart-contracts/ParImpar/contracts/SimpleCommit.sol",
  "compiler": {
    "name": "solc",
    "version": "0.5.16+commit.9c3226ce.Emscripten.clang"
  },
  "schemaVersion": "3.4.3",
  "updatedAt": "2021-09-30T00:02:15.173Z",
  "devdoc": {
    "methods": {}
  },
  "userdoc": {
    "methods": {}
  }
}