{
  "contractName": "VerySimpleFix",
  "abi": [
    {
      "inputs": [
        {
          "name": "i",
          "type": "int256"
        }
      ],
      "payable": false,
      "stateMutability": "nonpayable",
      "type": "constructor"
    },
    {
      "constant": false,
      "inputs": [],
      "name": "inc",
      "outputs": [],
      "payable": false,
      "stateMutability": "nonpayable",
      "type": "function"
    },
    {
      "constant": false,
      "inputs": [],
      "name": "dec",
      "outputs": [],
      "payable": false,
      "stateMutability": "nonpayable",
      "type": "function"
    },
    {
      "constant": false,
      "inputs": [
        {
          "name": "c",
          "type": "int256"
        }
      ],
      "name": "check",
      "outputs": [
        {
          "name": "",
          "type": "bool"
        }
      ],
      "payable": false,
      "stateMutability": "nonpayable",
      "type": "function"
    },
    {
      "constant": false,
      "inputs": [],
      "name": "positive",
      "outputs": [
        {
          "name": "",
          "type": "bool"
        }
      ],
      "payable": false,
      "stateMutability": "nonpayable",
      "type": "function"
    },
    {
      "constant": false,
      "inputs": [],
      "name": "getBalance",
      "outputs": [
        {
          "name": "",
          "type": "int256"
        }
      ],
      "payable": false,
      "stateMutability": "nonpayable",
      "type": "function"
    }
  ],
  "bytecode": "0x608060405234801561001057600080fd5b506040516102683803806102688339818101604052602081101561003357600080fd5b8101908080519060200190929190505050806000819055505061020d8061005b6000396000f3fe608060405234801561001057600080fd5b50600436106100575760003560e01c806312065fe01461005c578063371303c01461007a5780639943d66914610084578063b3bcfa82146100ca578063d7d24afa146100d4575b600080fd5b6100646100f6565b6040518082815260200191505060405180910390f35b6100826100ff565b005b6100b06004803603602081101561009a57600080fd5b810190808035906020019092919050505061011d565b604051808215151515815260200191505060405180910390f35b6100d261012a565b005b6100dc610148565b604051808215151515815260200191505060405180910390f35b60008054905090565b610115600160005461015490919063ffffffff16565b600081905550565b6000805482149050919050565b610140600160005461019690919063ffffffff16565b600081905550565b60008060005413905090565b60008082840190506000831215801561016d5750838112155b80610183575060008312801561018257508381125b5b61018c57600080fd5b8091505092915050565b6000808284039050600083121580156101af5750838113155b806101c557506000831280156101c457508381135b5b6101ce57600080fd5b809150509291505056fea265627a7a72305820ef94fd5335a3538ab4edb207b3151aa38ed5272005f817f71ad3b18da4b7818e64736f6c634300050a0032",
  "source": "pragma solidity ^0.5.10;\n\nimport \"./SignedSafeMath.sol\";\n\ncontract VerySimpleFix {\n    int balance;\n    constructor(int i) public {\n        balance = i;\n    }\n    using SignedSafeMath for int256;\n    \n    function inc() public {\n        balance = balance.add(1);\n    }\n    \n    function dec() public \n    {\n        balance = balance.sub(1);\n    }\n    \n    function check(int c) public returns (bool) {\n        return c==balance;\n    }\n    \n    function positive() public returns (bool) {\n        return balance>0;\n    }\n    \n    function getBalance() public returns (int) {\n        return balance;\n    }\n    \n}",
  "sourcePath": "/home/bufulin/Documents/blockchain_development/VerySimple/src/contracts/VerySimpleFix.sol",
  "compiler": {
    "name": "solc",
    "version": "0.5.10+commit.5a6ea5b1.Emscripten.clang"
  },
  "schemaVersion": "3.4.3",
  "updatedAt": "2021-08-25T11:55:53.836Z",
  "networkType": "ethereum",
  "devdoc": {
    "methods": {}
  },
  "userdoc": {
    "methods": {}
  }
}