{
  "contractName": "VerySimple",
  "abi": [
    {
      "inputs": [
        {
          "internalType": "int256",
          "name": "i",
          "type": "int256"
        }
      ],
      "payable": false,
      "stateMutability": "nonpayable",
      "type": "constructor"
    },
    {
      "constant": false,
      "inputs": [],
      "name": "inc",
      "outputs": [],
      "payable": false,
      "stateMutability": "nonpayable",
      "type": "function"
    },
    {
      "constant": false,
      "inputs": [],
      "name": "dec",
      "outputs": [],
      "payable": false,
      "stateMutability": "nonpayable",
      "type": "function"
    },
    {
      "constant": false,
      "inputs": [
        {
          "internalType": "int256",
          "name": "c",
          "type": "int256"
        }
      ],
      "name": "setValue",
      "outputs": [
        {
          "internalType": "int256",
          "name": "",
          "type": "int256"
        }
      ],
      "payable": false,
      "stateMutability": "nonpayable",
      "type": "function"
    },
    {
      "constant": false,
      "inputs": [
        {
          "internalType": "int256",
          "name": "c",
          "type": "int256"
        }
      ],
      "name": "check",
      "outputs": [
        {
          "internalType": "bool",
          "name": "",
          "type": "bool"
        }
      ],
      "payable": false,
      "stateMutability": "nonpayable",
      "type": "function"
    },
    {
      "constant": false,
      "inputs": [],
      "name": "positive",
      "outputs": [
        {
          "internalType": "bool",
          "name": "",
          "type": "bool"
        }
      ],
      "payable": false,
      "stateMutability": "nonpayable",
      "type": "function"
    },
    {
      "constant": false,
      "inputs": [],
      "name": "getBalance",
      "outputs": [
        {
          "internalType": "int256",
          "name": "",
          "type": "int256"
        }
      ],
      "payable": false,
      "stateMutability": "nonpayable",
      "type": "function"
    }
  ],
  "bytecode": "0x608060405234801561001057600080fd5b506040516102243803806102248339818101604052602081101561003357600080fd5b810190808051906020019092919050505080600081905550506101c98061005b6000396000f3fe608060405234801561001057600080fd5b50600436106100625760003560e01c806312065fe014610067578063371303c0146100855780635093dc7d1461008f5780639943d669146100d1578063b3bcfa8214610117578063d7d24afa14610121575b600080fd5b61006f610143565b6040518082815260200191505060405180910390f35b61008d61014c565b005b6100bb600480360360208110156100a557600080fd5b810190808035906020019092919050505061015a565b6040518082815260200191505060405180910390f35b6100fd600480360360208110156100e757600080fd5b810190808035906020019092919050505061016d565b604051808215151515815260200191505060405180910390f35b61011f61017a565b005b610129610188565b604051808215151515815260200191505060405180910390f35b60008054905090565b600160005401600081905550565b6000816000819055506000549050919050565b6000805482149050919050565b600160005403600081905550565b6000806000541390509056fea265627a7a723158209311c92ef935d90c17b59dd9d16017ea74f527b8947a40751e9b94a47d45426064736f6c63430005100032",
  "source": "pragma solidity ^0.5.10;\n\n\ncontract VerySimple {\n    int balance;\n    constructor(int i) public {balance = i;}\n    \n    function inc() public {\n        balance = balance +1; \n        \n    }\n    \n    function dec() public \n    {\n        balance = balance -1;\n    }\n    \n        \n    function setValue(int c) public returns (int) {\n         balance= c;\n         return balance;\n    }\n    \n    function check(int c) public returns (bool) {\n        return c==balance;\n    }\n    \n    function positive() public returns (bool) {\n        return balance>0;\n    }\n    \n    function getBalance() public returns (int) {\n        return balance;\n    }\n    \n}",
  "sourcePath": "/home/bufulin/Documents/blockchain_development/VerySimple/src/contracts/VerySimple.sol",
  "compiler": {
    "name": "solc",
    "version": "0.5.16+commit.9c3226ce.Emscripten.clang"
  },
  "schemaVersion": "3.4.3",
  "updatedAt": "2021-08-24T19:53:04.625Z",
  "networkType": "ethereum",
  "devdoc": {
    "methods": {}
  },
  "userdoc": {
    "methods": {}
  }
}