{
  "contractName": "VerySimple",
  "abi": [
    {
      "inputs": [
        {
          "name": "i",
          "type": "int256"
        }
      ],
      "payable": false,
      "stateMutability": "nonpayable",
      "type": "constructor"
    },
    {
      "constant": false,
      "inputs": [],
      "name": "inc",
      "outputs": [],
      "payable": false,
      "stateMutability": "nonpayable",
      "type": "function"
    },
    {
      "constant": false,
      "inputs": [],
      "name": "dec",
      "outputs": [],
      "payable": false,
      "stateMutability": "nonpayable",
      "type": "function"
    },
    {
      "constant": false,
      "inputs": [
        {
          "name": "c",
          "type": "int256"
        }
      ],
      "name": "check",
      "outputs": [
        {
          "name": "",
          "type": "bool"
        }
      ],
      "payable": false,
      "stateMutability": "nonpayable",
      "type": "function"
    },
    {
      "constant": false,
      "inputs": [],
      "name": "positive",
      "outputs": [
        {
          "name": "",
          "type": "bool"
        }
      ],
      "payable": false,
      "stateMutability": "nonpayable",
      "type": "function"
    },
    {
      "constant": false,
      "inputs": [],
      "name": "getBalance",
      "outputs": [
        {
          "name": "",
          "type": "int256"
        }
      ],
      "payable": false,
      "stateMutability": "nonpayable",
      "type": "function"
    }
  ],
  "bytecode": "0x608060405234801561001057600080fd5b506040516101c43803806101c48339818101604052602081101561003357600080fd5b810190808051906020019092919050505080600081905550506101698061005b6000396000f3fe608060405234801561001057600080fd5b50600436106100575760003560e01c806312065fe01461005c578063371303c01461007a5780639943d66914610084578063b3bcfa82146100ca578063d7d24afa146100d4575b600080fd5b6100646100f6565b6040518082815260200191505060405180910390f35b6100826100ff565b005b6100b06004803603602081101561009a57600080fd5b810190808035906020019092919050505061010d565b604051808215151515815260200191505060405180910390f35b6100d261011a565b005b6100dc610128565b604051808215151515815260200191505060405180910390f35b60008054905090565b600160005401600081905550565b6000805482149050919050565b600160005403600081905550565b6000806000541390509056fea265627a7a72305820d4a0c070f5cab998bf68f34f073370077907b3f677cc30bbbe3f331bf58775a964736f6c634300050a0032",
  "source": "pragma solidity ^0.5.10;\n\n\ncontract VerySimple {\n    int balance;\n    constructor(int i) public {\n        balance = i;\n    }\n    \n    function inc() public {\n        balance = balance +1; \n    }\n    \n    function dec() public \n    {\n        balance = balance -1;\n    }\n    \n    function check(int c) public returns (bool) {\n        return c==balance;\n    }\n    \n    function positive() public returns (bool) {\n        return balance>0;\n    }\n    \n    function getBalance() public returns (int) {\n        return balance;\n    }\n    \n}",
  "sourcePath": "/home/bufulin/Documents/blockchain_development/VerySimple/src/contracts/VerySimple.sol",
  "compiler": {
    "name": "solc",
    "version": "0.5.10+commit.5a6ea5b1.Emscripten.clang"
  },
  "schemaVersion": "3.4.3",
  "updatedAt": "2021-08-25T13:32:10.908Z",
  "networkType": "ethereum",
  "devdoc": {
    "methods": {}
  },
  "userdoc": {
    "methods": {}
  }
}