{
  "contractName": "TestSimpleCommit",
  "abi": [
    {
      "inputs": [],
      "payable": false,
      "stateMutability": "nonpayable",
      "type": "constructor"
    },
    {
      "constant": false,
      "inputs": [
        {
          "internalType": "bytes32",
          "name": "c1",
          "type": "bytes32"
        },
        {
          "internalType": "bytes1",
          "name": "v1",
          "type": "bytes1"
        },
        {
          "internalType": "bytes32",
          "name": "nonce1",
          "type": "bytes32"
        }
      ],
      "name": "doTest",
      "outputs": [],
      "payable": false,
      "stateMutability": "nonpayable",
      "type": "function"
    },
    {
      "constant": false,
      "inputs": [],
      "name": "getResult",
      "outputs": [
        {
          "internalType": "bool",
          "name": "",
          "type": "bool"
        }
      ],
      "payable": false,
      "stateMutability": "nonpayable",
      "type": "function"
    }
  ],
  "bytecode": "0x608060405234801561001057600080fd5b5060008060006101000a81548160ff0219169083151502179055506102e58061003a6000396000f3fe608060405234801561001057600080fd5b50600436106100365760003560e01c8063de2927891461003b578063fb860a5d1461005d575b600080fd5b6100436100c1565b604051808215151515815260200191505060405180910390f35b6100bf6004803603606081101561007357600080fd5b810190808035906020019092919080357effffffffffffffffffffffffffffffffffffffffffffffffffffffffffffff19169060200190929190803590602001909291905050506100d7565b005b60008060009054906101000a900460ff16905090565b600173__SimpleCommit__________________________623a471d9091856040518363ffffffff1660e01b8152600401808381526020018281526020019250505060006040518083038186803b15801561013057600080fd5b505af4158015610144573d6000803e3d6000fd5b50505050600173__SimpleCommit__________________________63ec01d198909183856040518463ffffffff1660e01b815260040180848152602001838152602001827effffffffffffffffffffffffffffffffffffffffffffffffffffffffffffff19167effffffffffffffffffffffffffffffffffffffffffffffffffffffffffffff19168152602001935050505060006040518083038186803b1580156101ee57600080fd5b505af4158015610202573d6000803e3d6000fd5b50505050600173__SimpleCommit__________________________6361f7bb2990916040518263ffffffff1660e01b81526004018082815260200191505060206040518083038186803b15801561025857600080fd5b505af415801561026c573d6000803e3d6000fd5b505050506040513d602081101561028257600080fd5b81019080805190602001909291905050506000806101000a81548160ff02191690831515021790555050505056fea265627a7a72315820ec2bfe962415ebbcac0ca6a943ca5c985f5c6921839a082fe38cefb068973af364736f6c63430005100032",
  "source": "pragma solidity >=0.4.25 <0.6.0;\n\n\nimport \"./SimpleCommit.sol\";\n\ncontract TestSimpleCommit {\n\nusing SimpleCommit for SimpleCommit.CommitType;\n\nbool ok;\nSimpleCommit.CommitType sc1;\n\nconstructor () public {\n  ok = false;\n}\n\n\n\nfunction doTest(bytes32 c1,byte v1,bytes32 nonce1) public {\n\n  sc1.commit(c1);\n  sc1.reveal(nonce1,v1);\n\n  ok = sc1.isCorrect();\n}\n\n\nfunction getResult() public returns (bool) {\nreturn ok;\n}\n\n}\n",
  "sourcePath": "/home/pedro/Documents/smart-contracts/SimpleCommit/contracts/TestSimpleCommit.sol",
  "compiler": {
    "name": "solc",
    "version": "0.5.16+commit.9c3226ce.Emscripten.clang"
  },
  "schemaVersion": "3.3.4",
  "updatedAt": "2021-09-25T16:25:44.251Z",
  "networkType": "ethereum",
  "devdoc": {
    "methods": {}
  },
  "userdoc": {
    "methods": {}
  }
}